{
  "contractName": "Items",
  "abi": [
    {
      "anonymous": false,
      "inputs": [
        {
          "indexed": false,
          "internalType": "uint256",
          "name": "itemId",
          "type": "uint256"
        },
        {
          "indexed": false,
          "internalType": "uint256",
          "name": "id",
          "type": "uint256"
        },
        {
          "indexed": false,
          "internalType": "uint256",
          "name": "status",
          "type": "uint256"
        }
      ],
      "name": "ChangeItemStatus",
      "type": "event"
    },
    {
      "anonymous": false,
      "inputs": [
        {
          "indexed": false,
          "internalType": "uint256",
          "name": "itemId",
          "type": "uint256"
        },
        {
          "indexed": false,
          "internalType": "uint256",
          "name": "id",
          "type": "uint256"
        },
        {
          "indexed": false,
          "internalType": "string",
          "name": "name",
          "type": "string"
        },
        {
          "indexed": false,
          "internalType": "string",
          "name": "info",
          "type": "string"
        },
        {
          "indexed": false,
          "internalType": "uint256",
          "name": "price",
          "type": "uint256"
        },
        {
          "indexed": false,
          "internalType": "uint256",
          "name": "count",
          "type": "uint256"
        },
        {
          "indexed": false,
          "internalType": "uint256",
          "name": "status",
          "type": "uint256"
        },
        {
          "indexed": false,
          "internalType": "address",
          "name": "buyer",
          "type": "address"
        }
      ],
      "name": "ItemPurchased",
      "type": "event"
    },
    {
      "constant": true,
      "inputs": [],
      "name": "itemCount",
      "outputs": [
        {
          "internalType": "uint256",
          "name": "",
          "type": "uint256"
        }
      ],
      "payable": false,
      "stateMutability": "view",
      "type": "function"
    },
    {
      "constant": true,
      "inputs": [
        {
          "internalType": "uint256",
          "name": "",
          "type": "uint256"
        }
      ],
      "name": "items",
      "outputs": [
        {
          "internalType": "uint256",
          "name": "itemId",
          "type": "uint256"
        },
        {
          "internalType": "uint256",
          "name": "id",
          "type": "uint256"
        },
        {
          "internalType": "string",
          "name": "name",
          "type": "string"
        },
        {
          "internalType": "string",
          "name": "info",
          "type": "string"
        },
        {
          "internalType": "uint256",
          "name": "price",
          "type": "uint256"
        },
        {
          "internalType": "uint256",
          "name": "count",
          "type": "uint256"
        },
        {
          "internalType": "uint256",
          "name": "status",
          "type": "uint256"
        },
        {
          "internalType": "address",
          "name": "buyer",
          "type": "address"
        }
      ],
      "payable": false,
      "stateMutability": "view",
      "type": "function"
    },
    {
      "constant": false,
      "inputs": [
        {
          "internalType": "uint256",
          "name": "_id",
          "type": "uint256"
        },
        {
          "internalType": "string",
          "name": "_name",
          "type": "string"
        },
        {
          "internalType": "string",
          "name": "_info",
          "type": "string"
        },
        {
          "internalType": "uint256",
          "name": "_price",
          "type": "uint256"
        }
      ],
      "name": "buyItem",
      "outputs": [],
      "payable": false,
      "stateMutability": "nonpayable",
      "type": "function"
    }
  ],
  "bytecode": "0x6080604052600060015534801561001557600080fd5b5061084a806100256000396000f3fe608060405234801561001057600080fd5b50600436106100415760003560e01c806325243ff8146100465780636bfb0d01146101ac578063bfb231d2146101ca575b600080fd5b6101aa6004803603608081101561005c57600080fd5b81019080803590602001909291908035906020019064010000000081111561008357600080fd5b82018360208201111561009557600080fd5b803590602001918460018302840111640100000000831117156100b757600080fd5b91908080601f016020809104026020016040519081016040528093929190818152602001838380828437600081840152601f19601f8201169050808301925050505050505091929192908035906020019064010000000081111561011a57600080fd5b82018360208201111561012c57600080fd5b8035906020019184600183028401116401000000008311171561014e57600080fd5b91908080601f016020809104026020016040519081016040528093929190818152602001838380828437600081840152601f19601f82011690508083019250505050505050919291929080359060200190929190505050610333565b005b6101b46105d2565b6040518082815260200191505060405180910390f35b6101f6600480360360208110156101e057600080fd5b81019080803590602001909291905050506105d8565b6040518089815260200188815260200180602001806020018781526020018681526020018581526020018473ffffffffffffffffffffffffffffffffffffffff1673ffffffffffffffffffffffffffffffffffffffff168152602001838103835289818151815260200191508051906020019080838360005b8381101561028a57808201518184015260208101905061026f565b50505050905090810190601f1680156102b75780820380516001836020036101000a031916815260200191505b50838103825288818151815260200191508051906020019080838360005b838110156102f05780820151818401526020810190506102d5565b50505050905090810190601f16801561031d5780820380516001836020036101000a031916815260200191505b509a505050505050505050505060405180910390f35b600160008154809291906001019190505550604051806101000160405280600154815260200185815260200184815260200183815260200182815260200160018152602001600081526020013373ffffffffffffffffffffffffffffffffffffffff168152506000806001548152602001908152602001600020600082015181600001556020820151816001015560408201518160020190805190602001906103dd929190610770565b5060608201518160030190805190602001906103fa929190610770565b506080820151816004015560a0820151816005015560c0820151816006015560e08201518160070160006101000a81548173ffffffffffffffffffffffffffffffffffffffff021916908373ffffffffffffffffffffffffffffffffffffffff1602179055509050507f0a6ffd28ea4e114f1dc3678ba5d197c5ffbec8c4dac66b4961a86b4ae0c8f2c66001548585858560016000336040518089815260200188815260200180602001806020018781526020018681526020018581526020018473ffffffffffffffffffffffffffffffffffffffff1673ffffffffffffffffffffffffffffffffffffffff168152602001838103835289818151815260200191508051906020019080838360005b83811015610524578082015181840152602081019050610509565b50505050905090810190601f1680156105515780820380516001836020036101000a031916815260200191505b50838103825288818151815260200191508051906020019080838360005b8381101561058a57808201518184015260208101905061056f565b50505050905090810190601f1680156105b75780820380516001836020036101000a031916815260200191505b509a505050505050505050505060405180910390a150505050565b60015481565b6000602052806000526040600020600091509050806000015490806001015490806002018054600181600116156101000203166002900480601f0160208091040260200160405190810160405280929190818152602001828054600181600116156101000203166002900480156106905780601f1061066557610100808354040283529160200191610690565b820191906000526020600020905b81548152906001019060200180831161067357829003601f168201915b505050505090806003018054600181600116156101000203166002900480601f01602080910402602001604051908101604052809291908181526020018280546001816001161561010002031660029004801561072e5780601f106107035761010080835404028352916020019161072e565b820191906000526020600020905b81548152906001019060200180831161071157829003601f168201915b5050505050908060040154908060050154908060060154908060070160009054906101000a900473ffffffffffffffffffffffffffffffffffffffff16905088565b828054600181600116156101000203166002900490600052602060002090601f016020900481019282601f106107b157805160ff19168380011785556107df565b828001600101855582156107df579182015b828111156107de5782518255916020019190600101906107c3565b5b5090506107ec91906107f0565b5090565b61081291905b8082111561080e5760008160009055506001016107f6565b5090565b9056fea265627a7a7231582063ff2d05940c74e3818ba6da19c4c1032866a350ddb8e2cdd26a2504e5f7542a64736f6c63430005100032",
  "source": "pragma solidity ^0.5.0;\n\ncontract Items {\n    struct Item {\n        uint256 itemId;\n        uint256 id;\n        string name;\n        string info;\n        uint256 price;\n        uint256 count;\n        uint256 status;\n        address buyer;\n    }\n\n    mapping(uint256 => Item) public items;\n    uint256 public itemCount = 0;\n    event ItemPurchased(\n        uint256 itemId,\n        uint256 id,\n        string name,\n        string info,\n        uint256 price,\n        uint256 count,\n        uint256 status,\n        address buyer\n    );\n    event ChangeItemStatus(uint256 itemId, uint256 id, uint256 status);\n\n    // Add a product\n    function buyItem(\n        uint256 _id,\n        string memory _name,\n        string memory _info,\n        uint256 _price\n    ) public {\n        itemCount++;\n        items[itemCount] = Item(\n            itemCount,\n            _id,\n            _name,\n            _info,\n            _price,\n            1,\n            0,\n            msg.sender\n        );\n        emit ItemPurchased(\n            itemCount,\n            _id,\n            _name,\n            _info,\n            _price,\n            1,\n            0,\n            msg.sender\n        );\n    }\n}",
  "sourcePath": "/Users/kaushirajapakshe/Downloads/Desktop 7/foodshop/contracts/Items.sol",
  "compiler": {
    "name": "solc",
    "version": "0.5.16+commit.9c3226ce.Emscripten.clang"
  },
  "schemaVersion": "3.4.16",
  "updatedAt": "2024-10-07T14:34:52.205Z",
  "networkType": "ethereum",
  "devdoc": {
    "methods": {}
  },
  "userdoc": {
    "methods": {}
  }
}