{
  "contractName": "Ownable",
  "abi": [
    {
      "inputs": [],
      "payable": false,
      "stateMutability": "nonpayable",
      "type": "constructor"
    },
    {
      "anonymous": false,
      "inputs": [
        {
          "indexed": true,
          "internalType": "address",
          "name": "previousOwner",
          "type": "address"
        },
        {
          "indexed": true,
          "internalType": "address",
          "name": "newOwner",
          "type": "address"
        }
      ],
      "name": "OwnershipTransferred",
      "type": "event"
    },
    {
      "constant": true,
      "inputs": [],
      "name": "owner",
      "outputs": [
        {
          "internalType": "address",
          "name": "",
          "type": "address"
        }
      ],
      "payable": false,
      "stateMutability": "view",
      "type": "function"
    },
    {
      "constant": false,
      "inputs": [
        {
          "internalType": "address",
          "name": "newOwner",
          "type": "address"
        }
      ],
      "name": "transferOwnership",
      "outputs": [],
      "payable": false,
      "stateMutability": "nonpayable",
      "type": "function"
    }
  ],
  "bytecode": "0x608060405234801561001057600080fd5b50336000806101000a81548173ffffffffffffffffffffffffffffffffffffffff021916908373ffffffffffffffffffffffffffffffffffffffff16021790555061034f806100606000396000f3fe608060405234801561001057600080fd5b50600436106100365760003560e01c80638da5cb5b1461003b578063f2fde38b14610085575b600080fd5b6100436100c9565b604051808273ffffffffffffffffffffffffffffffffffffffff1673ffffffffffffffffffffffffffffffffffffffff16815260200191505060405180910390f35b6100c76004803603602081101561009b57600080fd5b81019080803573ffffffffffffffffffffffffffffffffffffffff1690602001909291905050506100ee565b005b6000809054906101000a900473ffffffffffffffffffffffffffffffffffffffff1681565b6000809054906101000a900473ffffffffffffffffffffffffffffffffffffffff1673ffffffffffffffffffffffffffffffffffffffff163373ffffffffffffffffffffffffffffffffffffffff16146101b0576040517f08c379a00000000000000000000000000000000000000000000000000000000081526004018080602001828103825260208152602001807f4f776e61626c653a2063616c6c6572206973206e6f7420746865206f776e657281525060200191505060405180910390fd5b600073ffffffffffffffffffffffffffffffffffffffff168173ffffffffffffffffffffffffffffffffffffffff161415610236576040517f08c379a00000000000000000000000000000000000000000000000000000000081526004018080602001828103825260268152602001806102f56026913960400191505060405180910390fd5b8073ffffffffffffffffffffffffffffffffffffffff166000809054906101000a900473ffffffffffffffffffffffffffffffffffffffff1673ffffffffffffffffffffffffffffffffffffffff167f8be0079c531659141344cd1fd0a4f28419497f9722a3daafe3b4186f6b6457e060405160405180910390a3806000806101000a81548173ffffffffffffffffffffffffffffffffffffffff021916908373ffffffffffffffffffffffffffffffffffffffff1602179055505056fe4f776e61626c653a206e6577206f776e657220697320746865207a65726f2061646472657373a265627a7a72315820cad352fa71c6262c24a5c614e85e2cf2600383bd7d86cdb1953b5b5ca9e7187f64736f6c63430005100032",
  "source": "pragma solidity ^0.5.0;\n\n// Ownable contract to manage ownership and restrict access\ncontract Ownable {\n    address public owner;\n\n    event OwnershipTransferred(\n        address indexed previousOwner,\n        address indexed newOwner\n    );\n\n    // Constructor to set the initial owner to the contract deployer\n    constructor() public {\n        owner = msg.sender;\n    }\n\n    // Modifier to restrict access to only the owner\n    modifier onlyOwner() {\n        require(msg.sender == owner, \"Ownable: caller is not the owner\");\n        _;\n    }\n\n    // Function to transfer ownership to a new address\n    function transferOwnership(address newOwner) public onlyOwner {\n        require(\n            newOwner != address(0),\n            \"Ownable: new owner is the zero address\"\n        );\n        emit OwnershipTransferred(owner, newOwner);\n        owner = newOwner;\n    }\n}\n\n// Products contract that uses Ownable for ownership management\ncontract Products is Ownable {\n    struct Product {\n        uint256 id;\n        string name;\n        string info;\n        uint256 price;\n        uint256 count;\n        address owner;\n    }\n\n    mapping(uint256 => Product) public products;\n\n    uint256 public productCount = 0;\n\n    event ProductAdded(\n        uint256 id,\n        string name,\n        string info,\n        uint256 price,\n        uint256 count,\n        address owner\n    );\n    event AllProductsDeleted();\n\n    // Modifier to check that the caller is the product owner\n    modifier onlyProductOwner(uint _id) {\n        require(\n            products[_id].owner == msg.sender,\n            \"Caller is not the product owner\"\n        );\n        _;\n    }\n\n    // Add a product\n    function addProduct(\n        string memory _name,\n        string memory _info,\n        uint256 _price,\n        uint256 _count\n    ) public onlyOwner {\n        productCount++;\n        products[productCount] = Product(\n            productCount,\n            _name,\n            _info,\n            _price,\n            _count,\n            msg.sender\n        );\n        emit ProductAdded(\n            productCount,\n            _name,\n            _info,\n            _price,\n            _count,\n            msg.sender\n        );\n    }\n\n    function deleteAllProducts() public onlyOwner {\n        for (uint256 i = 1; i <= productCount; i++) {\n            delete products[i];\n        }\n        productCount = 0;\n        emit AllProductsDeleted();\n    }\n}\n",
  "sourcePath": "/Users/kaushirajapakshe/Downloads/Desktop 7/foodshop/contracts/Products.sol",
  "compiler": {
    "name": "solc",
    "version": "0.5.16+commit.9c3226ce.Emscripten.clang"
  },
  "schemaVersion": "3.4.16",
  "updatedAt": "2024-10-07T15:00:19.860Z",
  "devdoc": {
    "methods": {}
  },
  "userdoc": {
    "methods": {}
  }
}