{
  "contractName": "Products",
  "abi": [
    {
      "anonymous": false,
      "inputs": [],
      "name": "AllProductsDeleted",
      "type": "event"
    },
    {
      "anonymous": false,
      "inputs": [
        {
          "indexed": false,
          "internalType": "uint256",
          "name": "id",
          "type": "uint256"
        },
        {
          "indexed": false,
          "internalType": "string",
          "name": "name",
          "type": "string"
        },
        {
          "indexed": false,
          "internalType": "string",
          "name": "info",
          "type": "string"
        },
        {
          "indexed": false,
          "internalType": "uint256",
          "name": "price",
          "type": "uint256"
        },
        {
          "indexed": false,
          "internalType": "uint256",
          "name": "count",
          "type": "uint256"
        },
        {
          "indexed": false,
          "internalType": "address",
          "name": "owner",
          "type": "address"
        }
      ],
      "name": "ProductAdded",
      "type": "event"
    },
    {
      "constant": true,
      "inputs": [],
      "name": "productCount",
      "outputs": [
        {
          "internalType": "uint256",
          "name": "",
          "type": "uint256"
        }
      ],
      "payable": false,
      "stateMutability": "view",
      "type": "function"
    },
    {
      "constant": true,
      "inputs": [
        {
          "internalType": "uint256",
          "name": "",
          "type": "uint256"
        }
      ],
      "name": "products",
      "outputs": [
        {
          "internalType": "uint256",
          "name": "id",
          "type": "uint256"
        },
        {
          "internalType": "string",
          "name": "name",
          "type": "string"
        },
        {
          "internalType": "string",
          "name": "info",
          "type": "string"
        },
        {
          "internalType": "uint256",
          "name": "price",
          "type": "uint256"
        },
        {
          "internalType": "uint256",
          "name": "count",
          "type": "uint256"
        },
        {
          "internalType": "address",
          "name": "owner",
          "type": "address"
        }
      ],
      "payable": false,
      "stateMutability": "view",
      "type": "function"
    },
    {
      "constant": false,
      "inputs": [
        {
          "internalType": "string",
          "name": "_name",
          "type": "string"
        },
        {
          "internalType": "string",
          "name": "_info",
          "type": "string"
        },
        {
          "internalType": "uint256",
          "name": "_price",
          "type": "uint256"
        },
        {
          "internalType": "uint256",
          "name": "_count",
          "type": "uint256"
        }
      ],
      "name": "addProduct",
      "outputs": [],
      "payable": false,
      "stateMutability": "nonpayable",
      "type": "function"
    },
    {
      "constant": false,
      "inputs": [
        {
          "internalType": "uint256",
          "name": "_id",
          "type": "uint256"
        }
      ],
      "name": "buyProduct",
      "outputs": [],
      "payable": false,
      "stateMutability": "nonpayable",
      "type": "function"
    },
    {
      "constant": false,
      "inputs": [],
      "name": "deleteAllProducts",
      "outputs": [],
      "payable": false,
      "stateMutability": "nonpayable",
      "type": "function"
    }
  ],
  "bytecode": "0x6080604052600060015534801561001557600080fd5b506109d0806100256000396000f3fe608060405234801561001057600080fd5b50600436106100575760003560e01c806301cecd141461005c5780636a14999a146101c25780637acc0b20146101cc5780638642269e14610327578063e0f6ef8714610355575b600080fd5b6101c06004803603608081101561007257600080fd5b810190808035906020019064010000000081111561008f57600080fd5b8201836020820111156100a157600080fd5b803590602001918460018302840111640100000000831117156100c357600080fd5b91908080601f016020809104026020016040519081016040528093929190818152602001838380828437600081840152601f19601f8201169050808301925050505050505091929192908035906020019064010000000081111561012657600080fd5b82018360208201111561013857600080fd5b8035906020019184600183028401116401000000008311171561015a57600080fd5b91908080601f016020809104026020016040519081016040528093929190818152602001838380828437600081840152601f19601f8201169050808301925050505050505091929192908035906020019092919080359060200190929190505050610373565b005b6101ca6105dd565b005b6101f8600480360360208110156101e257600080fd5b81019080803590602001909291905050506106a5565b6040518087815260200180602001806020018681526020018581526020018473ffffffffffffffffffffffffffffffffffffffff1673ffffffffffffffffffffffffffffffffffffffff168152602001838103835288818151815260200191508051906020019080838360005b83811015610280578082015181840152602081019050610265565b50505050905090810190601f1680156102ad5780820380516001836020036101000a031916815260200191505b50838103825287818151815260200191508051906020019080838360005b838110156102e65780820151818401526020810190506102cb565b50505050905090810190601f1680156103135780820380516001836020036101000a031916815260200191505b509850505050505050505060405180910390f35b6103536004803603602081101561033d57600080fd5b8101908080359060200190929190505050610831565b005b61035d6108a8565b6040518082815260200191505060405180910390f35b6001600081548092919060010191905055506040518060c0016040528060015481526020018581526020018481526020018381526020018281526020013373ffffffffffffffffffffffffffffffffffffffff1681525060008060015481526020019081526020016000206000820151816000015560208201518160010190805190602001906104049291906108ae565b5060408201518160020190805190602001906104219291906108ae565b50606082015181600301556080820151816004015560a08201518160050160006101000a81548173ffffffffffffffffffffffffffffffffffffffff021916908373ffffffffffffffffffffffffffffffffffffffff1602179055509050507f389e2ea4847e5fcbaa939d1b97d7f54496bc0331fa6b2020dd23bc42cf2928c760015485858585336040518087815260200180602001806020018681526020018581526020018473ffffffffffffffffffffffffffffffffffffffff1673ffffffffffffffffffffffffffffffffffffffff168152602001838103835288818151815260200191508051906020019080838360005b83811015610531578082015181840152602081019050610516565b50505050905090810190601f16801561055e5780820380516001836020036101000a031916815260200191505b50838103825287818151815260200191508051906020019080838360005b8381101561059757808201518184015260208101905061057c565b50505050905090810190601f1680156105c45780820380516001836020036101000a031916815260200191505b509850505050505050505060405180910390a150505050565b6000600190505b600154811161066e57600080828152602001908152602001600020600080820160009055600182016000610618919061092e565b600282016000610628919061092e565b600382016000905560048201600090556005820160006101000a81549073ffffffffffffffffffffffffffffffffffffffff0219169055505080806001019150506105e4565b5060006001819055507f5df1a7a15c53a53ae7d055893d87cb9d0d0b12334046706cbee33860e6957d8560405160405180910390a1565b6000602052806000526040600020600091509050806000015490806001018054600181600116156101000203166002900480601f0160208091040260200160405190810160405280929190818152602001828054600181600116156101000203166002900480156107575780601f1061072c57610100808354040283529160200191610757565b820191906000526020600020905b81548152906001019060200180831161073a57829003601f168201915b505050505090806002018054600181600116156101000203166002900480601f0160208091040260200160405190810160405280929190818152602001828054600181600116156101000203166002900480156107f55780601f106107ca576101008083540402835291602001916107f5565b820191906000526020600020905b8154815290600101906020018083116107d857829003601f168201915b5050505050908060030154908060040154908060050160009054906101000a900473ffffffffffffffffffffffffffffffffffffffff16905086565b60008082815260200190815260200160002060008082016000905560018201600061085c919061092e565b60028201600061086c919061092e565b600382016000905560048201600090556005820160006101000a81549073ffffffffffffffffffffffffffffffffffffffff0219169055505050565b60015481565b828054600181600116156101000203166002900490600052602060002090601f016020900481019282601f106108ef57805160ff191683800117855561091d565b8280016001018555821561091d579182015b8281111561091c578251825591602001919060010190610901565b5b50905061092a9190610976565b5090565b50805460018160011615610100020316600290046000825580601f106109545750610973565b601f0160209004906000526020600020908101906109729190610976565b5b50565b61099891905b8082111561099457600081600090555060010161097c565b5090565b9056fea265627a7a723158204fb5bdef03ab1d608b23296f570c31793a4218eec797a0107719ec5b67320ca764736f6c63430005100032",
  "source": "pragma solidity ^0.5.0;\n\ncontract Products {\n  struct Product {\n    uint id;\n    string name;\n    string info;\n    uint price;\n    uint count;\n    address owner;\n  }\n\n    mapping(uint => Product) public products;\n\n    uint public productCount = 0;\n\n    event ProductAdded(uint id, string name, string info, uint price, uint count, address owner);\n    event AllProductsDeleted();\n\n    // Add a product\n    function addProduct(string memory _name, string memory _info, uint _price, uint _count) public {\n        productCount++;\n        products[productCount] = Product(productCount, _name, _info, _price, _count, msg.sender);\n        emit ProductAdded(productCount, _name, _info, _price, _count, msg.sender);\n    }\n\n    // Retrieve all product\n    // function getProducts() public {\n    //     Product[] memory allProducts = new Product[](productCount);\n    //     for (uint i = 1; i <= productCount; i++) {\n    //         allProducts[i - 1] = products[i];\n    //     }\n    // }\n\n    // Buy Product\n    function buyProduct(uint _id) public {\n      delete products[_id]; \n    }\n\n    // Retrieve a product by ID\n    // function getProduct(uint _id) public view returns (Product memory) {\n    //     return products[_id];\n    // }\n\n    function deleteAllProducts() public {\n        \n        for (uint i = 1; i <= productCount; i++) {\n            delete products[i];\n        }\n        productCount = 0; \n        emit AllProductsDeleted(); \n    }\n\n}",
  "sourcePath": "/home/user/Desktop/Datafiles/week04/foodshop/contracts/Products.sol",
  "compiler": {
    "name": "solc",
    "version": "0.5.16+commit.9c3226ce.Emscripten.clang"
  },
  "schemaVersion": "3.4.1",
  "updatedAt": "2024-10-04T11:35:00.472Z",
  "devdoc": {
    "methods": {}
  },
  "userdoc": {
    "methods": {}
  }
}